:020000040800F2
:10000000C00400200101000891150008A514000893
:100010008D15000879070008A515000800000000EC
:10002000000000000000000000000000991500081A
:100030007D07000800000000951500089D150008C8
:100040001B0100081B0100081B0100081B01000820
:100050001B0100081B0100081B0100081B01000810
:100060001B0100081B0100081B0100081B01000800
:100070001B0100081B0100081B0100081B010008F0
:100080001B0100081B0100081B0100081B010008E0
:100090001B0100081B0100081B0100081B010008D0
:1000A0001B0100081B0100081B0100081B010008C0
:1000B0001B0100081B0100081B0100081B010008B0
:1000C0001B0100081B0100081B0100081B010008A0
:1000D0001B0100081B0100081B0100081B01000890
:1000E0001B0100081B0100081B010008DFF80CD0F1
:1000F00000F09CFA00480047511F0008C00400208F
:100100000648804706480047FEE7FEE7FEE7FEE7B1
:10011000FEE7FEE7FEE7FEE7FEE7FEE7A1150008C3
:10012000ED00000880EA010210B502F00043400033
:1001300022D04A001FD0010E01EB1261C0F356001D
:10014000C2F3560240F4000042F40002A0FB022079
:1001500000047F39140400D0401C50EA124001D43E
:100160004000491EC2B20C0604EBD010401C4008EF
:10017000802A02D003E0002010BD20F001000029F9
:1001800000DA0020184310BDC10F80EAE070084477
:10019000CA079623002100F063B800F0004230F057
:1001A00000400AD0C10D01F56071C0F3160042EAAB
:1001B0000151C208400711437047002001467047B3
:1001C00030B50B46014600202022012409E021FA27
:1001D00002F59D4205D303FA02F5491B04FA02F524
:1001E0002844151EA2F10102F1DC30BD2DE9F05FBB
:1001F0000546002092469B46884606468146402496
:100200001BE0284641464746224600F036FA534650
:100210005A46C01A914110D311461846224600F0A2
:100220001DFA2D1A67EB01084F46224601200021D6
:1002300000F014FA17EB00094E41201EA4F101044E
:10024000DFDC484631462A464346BDE8F09F002998
:10025000A8BF7047401C490008BF20F0010070474C
:1002600010B4B0FA80FC00FA0CF050EA010404BFAC
:1002700010BC704749B1CCF1200421FA04F411FA02
:100280000CF118BF012121430843A3EB0C01CB1D46
:100290004FEA00614FEA102042BF002010BC7047B7
:1002A00000EBC35010440029A4BF10BC7047401C91
:1002B000490008BF20F0010010BC70472DE9FE4F37
:1002C000804681EA0300C00F0C46009021F00041F7
:1002D00023F00045B8EB0200A94105D24046214673
:1002E00090461C460B46024623F00040104347D080
:1002F000270DC7F30A00C3F30A510290401A019078
:1003000040286BDAC3F3130040F4801B0098924638
:1003100020B10023D2EB030A63EB0B0B0198594683
:10032000C0F14002504600F099F906460D4650468D
:100330005946019A00F0B1F910EB08006141002420
:1003400087EA115284EAE7731A4340D0009A62B3F5
:10035000019A012A4FEA075215DC001B61EB0201EA
:100360004FF0004202EA0752CDE90042001C41F57D
:10037000801132462B4600F0B1F903B0BDE8F08F92
:1003800040462146F9E7001B61EB0201001C41F5E4
:10039000801300185B412018A2F5001747EB0301FA
:1003A00040EAD570B6196D4111E06D084FEA360686
:1003B00045EAC0754FEA0752001B61EB0201001CC1
:1003C00041F5801149084FEA300000195141324689
:1003D0002B4603B0BDE8F04F00F071B90098012240
:1003E00040000023D0EB020263EBE073009821464B
:1003F0004FEAE074B8EB000061EB0401E9E783F039
:1004000000435BE781F0004158E72DE9FE4F81EAA8
:10041000030404F0004421F0004100944FF0000B6D
:1004200023F0004350EA01045ED052EA03045BD09B
:10043000C3F30A54C1F30A552C44A4F2F3340194D3
:10044000A0FB0254C1F3130141F48011C3F3130361
:1004500043F4801301FB024400FB034E840A970A15
:1004600044EA815447EA8357A4FB076802958D0A42
:1004700005FB07854FEA932C04FB0C542705029DCE
:100480004FEA065847EA1637B5EB08056EEB070C3E
:10049000870E920E47EA811742EA8312A7FB0201F8
:1004A000B6EB0B0164EB00042B0D43EA0C335E1832
:1004B00044EB1C50DA465146E7FB0201C5F3130436
:1004C0004FEA0B3343EA14534FEA0432019C43EAE8
:1004D0000603A4F10C040294009CCDE900B400F0E2
:1004E000FDF803B0BDE8F08F00200146F9E72DE9E3
:1004F000F04D81EA030404F0004B21F0004514465E
:100500004FF0000A23F0004150EA050220D054EADF
:1005100001021DD0C5F30A570246C5F31303C1F308
:100520001300C1F30A5640F4801543F48013A7EB7F
:100530000608101BD64608F2FD3873EB050002D3FF
:1005400008F1010801E092185B41B8F1000F03DAED
:1005500000200146BDE8F08D00204FF480110646D2
:1005600084460EE0171B73EB050705D3121B63EBE4
:10057000050306434CEA010C49084FEA3000921883
:100580005B4150EA0107EDD152EA030012D082EA42
:10059000040083EA0501084305D0101BAB4106D2D5
:1005A0000122002306E000224FF0004302E06FF03A
:1005B000010253101AEB06004CEB085110EB0A0035
:1005C00041EB0B01BDE8F04D00F079B8C1F30A52E0
:1005D000C1F3130140F2FF3341F480119A4202DA71
:1005E00000200146704740F233439A42A2F2334260
:1005F00002DC524200F041B800F030B830B5041EC1
:1006000071F1000404DB4FF00044404264EB01014F
:10061000141E73F1000405DB1C464FF000435242E8
:1006200063EB0403994208BF904230BD1CB50948F2
:100630000090094801900546009C06E0E06840F003
:10064000010394E8070098471034AC42F6D3FFF753
:1006500051FD0000AC2A0008CC2A0008202A04DB47
:10066000203A00FA02F1002070479140C2F12003C5
:1006700020FA03F3194390407047202A04DB203A04
:1006800021FA02F00021704721FA02F3D040C2F1B2
:1006900020029140084319467047202A06DBCB17F9
:1006A000203A41FA02F043EAE07306E041FA02F32D
:1006B000D040C2F12002914008431946704710B55E
:1006C000141E73F1000408DA401C41F10001921875
:1006D0005B411A4301D120F0010010BD2DE9F04D1E
:1006E00092469B4611B1B1FA81F202E0B0FA80F273
:1006F00020329046FFF7B2FF04460F4640EA0A0058
:1007000041EA0B0153465A46084313D0114653EAB7
:10071000010019D0C8F140025046FFF7AEFF054670
:100720000E46504659464246FFF798FF084305D00B
:10073000012004E020463946BDE8F08D0020054345
:1007400046EAE0762C4337430A986305E40AA0EBB7
:1007500008000022FD0A44EA47540A3002D500206E
:100760000146E9E7010510196941DDE9084500196D
:100770006941BDE8F04DA2E7FEE7000070470000C8
:10078000EFF3108072B600BFFEE7000080B54EF2B6
:10079000180140F26C02CEF20001C2F2000251F8E0
:1007A00004CC126880B250434FF47A7200FB02FE10
:1007B000086800230AE000BF03449B1A824228BF56
:1007C00063447345104628BF80BD00BF0A6882425B
:1007D000F2D10A688242EFD10A688242ECD10A68FB
:1007E0008242F3D0E8E700002DE9F04F82B00E68B6
:1007F000002E00F0FD8041F20042C4F20102042309
:1008000040F2004E904208BF03234FF6FF7CC4F233
:10081000010E009300240123C1F2100C4FF0000AD6
:100820004FF000094BE000BF41F20002C4F20102A8
:10083000009F904208BF022704F00C030F229A4049
:100840002BEA020207FA03F34FEA9A051A4346F825
:1008500025204E6840F20C45F202DEF8082054BF15
:1008600022EA080242EA0802C4F20105CEF8082092
:100870002A68B30254BF22EA080242EA08022A6048
:10088000B303DEF8042054BF22EA080242EA080259
:10089000F303CEF80420DEF800204FF0010354BF2C
:1008A00022EA080242EA0802CEF800200E680AF1A5
:1008B000010A36FA0AF204F1040400F0998003FAFE
:1008C0000AFB16EA0B08F1D04E68664512DC122EC0
:1008D00056D8DFE806F0350B4D4955555555555559
:1008E0005555555555555545510000BFD1F80C90FB
:1008F00046E000BF4FF6FF72C1F2210296420FDCC4
:100900000022C1F2110296421AD00022C1F2120254
:10091000964215D00022C1F22102964210D02FE05B
:100920000022C1F2220296420AD00022C1F2310214
:10093000964205D00022C1F23202964220D100BF79
:100940008A684AB1012A14BFC0F814B0C0F810B0C8
:100950004FF0080914E000BF4FF0040910E000BF99
:10096000CA6802F104090BE04FF0000908E000BF7B
:10097000CA6802F1080903E0CA6802F10C0900BF65
:1009800002462646B8F5807F24BF0432203E176811
:100990000F25B54027EA050509FA06F63543156027
:1009A000CA79D2067FF582AF41F21803C4F202037E
:1009B0001A68AEF57E7642F001021A601A6802F0FB
:1009C00001020192019A2AF0030256F802B040F6A1
:1009D0000002C4F20102904208D040F60042C4F284
:1009E000010290427FF420AF012725E7002723E78B
:1009F00002B0BDE8F08F00008068084018BF0120F9
:100A000070470000C26802EA0103914341EA0341D2
:100A100001617047002A08BF0904016170470000A6
:100A200040F2B800C2F200000068704740F20400D3
:100A300040F2B801C2F20000C2F2000100780A6878
:100A4000104408607047000080B542F20000C4F214
:100A50000200016841F010010160032000F07AF803
:100A60000F2000F005F800F027F8002080BD0000FE
:100A700070B540F20406C2F2000640F20C01327872
:100A8000C2F200014FF47A730968B3FBF2F2044634
:100A9000B1FBF2F1084600F073FB0F2C4FF001059B
:100AA00008D838B94FF0FF3021460022002500F069
:100AB00025F87460284670BD82B041F21800C4F277
:100AC00002000168022241F001010160016801F0A9
:100AD000010101910199416841F0805141604068F4
:100AE00000F08050009000980420C4F201000168DA
:100AF00062F31A61016002B07047000010B54EF653
:100B00000C5CCEF2000CDCF80030C3F3022E8EF049
:100B10000704042C28BF0424BEF103034FF0FF3E5A
:100B20000EFA04F438BF0023A14399400EFA03F3F0
:100B30009A43114300F00F0200F160430901043AA7
:100B400003F564436244002848BF02F10C031970A6
:100B500010BD00004EF60C51CEF200010A684FF6AF
:100B6000FF031A4060F30A2242F0806040F0FD70FB
:100B700008607047002804BF012070472DE9F0434A
:100B800081B042F20008C4F202080446D8F800001E
:100B90000D4600F0070081420CD9D8F8000020F083
:100BA00007002843C8F80000D8F8000000F007004C
:100BB000A8426CD1206841F204098107C4F20209FD
:100BC00017D5410705D5D9F8001041F4E061C9F8FF
:100BD0000010010705D5D9F8001041F46051C9F89B
:100BE0000010D9F80010A26821F0F0011143C9F8F3
:100BF0000010C00742D1D8F8000000F0070085427D
:100C00000CD2D8F8000020F007002843C8F80000F4
:100C1000D8F8000000F00700A84238D1206841074A
:100C200007D5D9F80010E26821F4E0611143C9F852
:100C30000010000708D5D9F80000216920F46050A1
:100C400040EAC100C9F80000D9F8002002F00C0009
:100C5000082841F20020C0F27A004DD142F6562316
:100C6000C2F38341C0F60003595CD20338D440F686
:100C70000010C0F23D0048433EE000BF606859F8F4
:100C8000041C022808D0012826D1890306D401209B
:100C900001B0BDE8F08300BF8901F8D5D9F8001094
:100CA00021F003010843C9F80000FFF7B9FE06462A
:100CB00041F28837D9F80000616800F00C00B0EB11
:100CC000810F98D0FFF7ACFE801BB842F2D9032009
:100CD00001B0BDE8F08300BF8907D8D5DEE700BFCB
:100CE000D9F8002042F65423C2F34042C0F6000374
:100CF0009A5C4843B0FBF2F0D9F8001042F63C226F
:100D0000C1F30311C0F60002515C40F20C0220FA5C
:100D100001F140F20800C2F200000068C2F20002D5
:100D20001160FFF7A5FE002001B0BDE8F0830000D0
:100D300040F20C0041F20401C2F20000C4F20201D0
:100D40000068096842F64C22C1F30221C0F6000295
:100D5000515CC8407047000040F20C0041F20401B1
:100D6000C2F20000C4F202010068096842F64C2297
:100D7000C1F3C221C0F60002515CC84070470000B8
:100D8000002804BF012070472DE9F04182B00446DD
:100D9000007841F20006C007C4F202060CD0706869
:100DA00000F00C00042840F081803068800303D5F7
:100DB0006068002800F04681207880071BD57068A5
:100DC00010F00C0F09D0706800F00C00082840F0FB
:100DD00087807068C00300F183803068800703D586
:100DE0002069012840F02E813068616920F0F80008
:100DF00040EAC10030602078000713D42078400713
:100E00002CD4E569002D00F01881706800F00C000A
:100E1000082840F0A780012D40F00481012002B095
:100E2000BDE8F081A069002800F084800020C4F2B1
:100E300042200121C0F88014FFF7F2FD054600BFF3
:100E4000706A800700F1B280FFF7EAFD401B0228BC
:100E5000F6D9032002B0BDE8F08100BFF0695FEA77
:100E6000C00808D4F06940F08050F061F06900F0EB
:100E700080500090009847F20007C4F200073868DD
:100E8000C00549D4386840F480703860FFF7C8FD69
:100E9000054600BF3868C0053ED4FFF7C1FD401BC2
:100EA0006428F7D9032002B0BDE8F081706800F033
:100EB0000C00082803D17068C0033FF576AF616865
:100EC0003068002900F00C81B1F5A02F00F00081FE
:100ED000B1F5803F40F01A8140F480301CE100BF42
:100EE0002069002840F20000C4F2422000F088800F
:100EF00001210160FFF794FD054600BF30688007BF
:100F00003FF572AFFFF78CFD401B0228F6D9032096
:100F100002B0BDE8F08100BFE168306A002900F04E
:100F20009D80052900F09280012940F0AF8040F0BB
:100F30000100B1E00020C4F242200021C0F880147A
:100F4000FFF76EFD054600BF706A80077FF556AF5C
:100F5000FFF766FD401B0228F6D9032002B0BDE86A
:100F6000F08100BF0027C4F2422700203866FFF757
:100F700057FD022D05460DD13068800140F1DE801D
:100F8000FFF74EFD401B02284FF00300F4D902B0DA
:100F9000BDE8F081306880014FD5FFF741FD401B6F
:100FA00002284FF00300F5D9F1E700BF40F20C0032
:100FB000C2F20000006844F6D351C1F26201A0FB06
:100FC0000101480A019000BF00BF0198411E00289E
:100FD00001913FF413AF00BF0198411E0028019119
:100FE0003FF40CAF00BF0198411E002801913FF46F
:100FF00005AF00BF0198411E00280191E4D1FDE634
:1010000000210160FFF70CFD054600BF3068800736
:101010007FF5F1AEFFF704FD401B02284FF00300FF
:10102000F4D9B4E77068216A00F480328A4209D1A9
:10103000616A00F47010884204D1002002B0BDE85B
:10104000F08100BF012002B0BDE8F08140F0040053
:101050003062306A40F001001EE000BF20F0010065
:101060003062306A20F004003062FFF7D9FC054698
:1010700041F28837306A800720D5FFF7D1FC401B4A
:10108000B8424FF00300F5D981E700BF20F001001E
:101090003062306A20F004003062FFF7C1FC054680
:1010A00041F28837306A800708D4FFF7B9FC401B4B
:1010B000B842F7D9032002B0BDE8F081B8F1000FC3
:1010C0003FF59FAEF06920F08050F06199E600BFD7
:1010D00040F480203060306840F480301CE000BF75
:1010E00020F480303060306820F480203060FFF7DA
:1010F00097FC0546306880037FF55EAEFFF790FCF5
:10110000401B64284FF00300F4D940E720F48030FE
:101110003060306820F480203060FFF781FC0546A5
:10112000306880033FF548AEFFF77AFC401B642827
:10113000F6D9032002B0BDE8F08100BF206AB0F507
:10114000803F05D17168A26821F4003111437160BC
:101150007168626A21F474111143084370600120C0
:101160003866FFF75DFC0446306880013FF565AFE7
:10117000FFF756FC001B02284FF00300F4D906E7E6
:10118000411E0020B0EB116F1CBF012070474EF2D2
:101190001002CEF2000251604EF62351CEF2000151
:1011A000F0230B700721906011607047002804BF86
:1011B0000120704710B5044690F8410028B900207E
:1011C00084F84000204600F063F8242084F84100B1
:1011D0002068D4E90212C36823F40053C360036992
:1011E00023F440531A430261D4E904231143C26833
:1011F000194341F20C639A431143C1604169A269EA
:1012000021F44071114343F60002C4F201029042FE
:10121000416103D0FFF78CFD02E000BFFFF79CFDAA
:10122000D4E90023192148439900B0FBF1F048F2BA
:101230001F5CC5F2EB1CA0FB0C314FF69C734909F7
:10124000C0F6FF7301FB0300322303EB0010A0FB89
:101250000C03F02000EA531000EB0110C3F343111C
:10126000084490601069202120F49040106150697A
:1012700020F02A005061D06840F40050D060002077
:10128000606484F8411084F84210606310BD00006F
:1012900070B586B040F60004C4F20104006804F59D
:1012A0004051002688420596CDE90366029601D09A
:1012B00006B070BD41F21800C4F20200016802AD30
:1012C00041F480410160016801F48041019101997C
:1012D000016841F0040101600068294600F0040043
:1012E000019001984FF400700290022003900320B7
:1012F00005902046FFF778FA4FF48060CDE90206AA
:10130000204629460496FFF76FFA06B070BD00002C
:101310002DE9F04381B0044690F84100202809D11E
:1013200000294FF0010018BF002A07D101B0BDE825
:10133000F08300BF022001B0BDE8F08300206064AC
:1013400021201D460E4684F841001746FFF768FB32
:10135000A784E784A1688146B1F5805F02D1206946
:1013600000285DD037460020E28C2168002A5DD03D
:101370006A1C24D0002D4AD0804600BF08680006B1
:1013800008D4FFF74DFBA0EB0900A8427AD82168EA
:10139000C868F3E717B117F8010B04E038F8020B3F
:1013A00000276FF35F204860E08C0138E084E08C18
:1013B0000028E3D13AE000BF0A68120609D40A689F
:1013C000120606D40A6812065CBF0A685FEA026267
:1013D000F2D51FB117F8012B05E000BF30F8022B42
:1013E00000276FF35F224A60E28C013AE284E28CCC
:1013F000002AE4D11AE000BF30F8022B00276FF377
:101400005F224A60E28C013AE284E28C72B10A689F
:10141000120635D5002FEFD017F8012BF1E700BFEA
:1014200000273046E28C2168002AA1D108684006D6
:101430001ED42DB3681C14D1086840062AD408684D
:10144000400627D40868400624D4086840064FF0B8
:101450000000F1D50DE000BF2068C16800684006BB
:1014600018D4FFF7DDFAA0EB0900A842F4D909E08F
:101470000020202184F8411001B0BDE8F08300BFB6
:10148000FFF7CEFA0320202184F8411001B0BDE817
:10149000F08300BF0020202184F8411001B0BDE896
:1014A000F0830000FEE700002DE9F04786B000273A
:1014B00041F21800CDE90477CDE90277C4F20200C9
:1014C000016840F6000941F0100101600168C4F2B2
:1014D000010901F0100101910199016809F5006508
:1014E00041F0200101600168002201F0200101911A
:1014F000019901684FF4005641F004010160006851
:101500004FF4005100F00400019001982846FFF7C5
:1015100081FA48464FF4807100224FF48078FFF73B
:1015200079FA029602AE4FF0010A022428463146AB
:10153000CDE903A70594FFF757F948463146CDE9B1
:10154000028ACDE90474FFF74FF906B0BDE8F087D1
:1015500080B540F2700043F60001C2F20000C4F210
:10156000010100234FF00C0C4FF4E13280E80E0033
:10157000C0E90333C0E905C3C361FFF717FE0028C4
:1015800008BF80BDBDE88040FFF7FAB8FEE7000065
:10159000FEE700007047000070470000FFF746BA02
:1015A00070470000FEE7000070B514460D46064681
:1015B00000F044FCD42000F085FB00F083FC28B14F
:1015C000012400F05FFC204670BD00BF304600F0F3
:1015D00079FB00F077FC28B1012400F053FC204691
:1015E00070BD00BF00F02AFCD52000F06BFB00F0BE
:1015F00069FC28B1012400F045FC204670BD00BF05
:1016000064B1013D644200BFB4F1FF3018BF012056
:1016100000F03EFA013405F8010FF5D3002400F084
:1016200031FC204670BD000010B5002000F024F908
:10163000052815D0002000F01FF9052810D0002043
:1016400000F01AF905280BD0002000F015F9052844
:1016500006D0002000F010F905281CBF012010BDA5
:101660000120012400F008F97C2805D103A0052100
:101670007C2200F057FD0024204610BD716D6938B2
:10168000363538B5C4C9E8B1B8B1EACAB6B7FBA3B4
:10169000BA2523782C20C9E8B1B84944A3BA252338
:1016A000780D0A0070B582B004460820002100269B
:1016B00000F014F940F21005C2F20005022085F88E
:1016C000386000F035F90120002C08BF03204FF0EE
:1016D0000D014FF060024FF0050308BF042108BF61
:1016E0003022002C08BF042385F838004FF020007A
:1016F00008BF302085F83A10032185F8390085F8B5
:101700003B204FF48052B1EB101F6FF0520085F870
:101710003C3008BF4FF40062EA87002C08BF6FF02E
:101720004B008DF806004FF0AD014FF0030008BFED
:10173000B42100F0D3F80DF1060106200122FFF7D5
:1017400033FF9DF8060000F0F000C11D062000F0F8
:10175000C5F895F8380080073DD595F83B1095F809
:101760003C004FEA3113072B1AD84FF40062DFE830
:1017700003F019050D091318151100BF4FF480620D
:1017800010E000BF4FF480720CE000BF4FF4007215
:1017900008E000BF102205E0802203E0202201E0E3
:1017A00050214022084360F07F008DF80700C1B24D
:1017B0000420A5F8402000F091F80DF10701062063
:1017C0000122FFF7F1FE9DF80710072060F31F11BB
:1017D000062000F083F802B070BD000080B582B032
:1017E0000DF1060133200222FFF7DEFEBDF90600EF
:1017F000FEF7CAFC4FF06E51FEF794FC02B080BDBC
:1018000010B500F0FBF86020B02100F067F89620DA
:1018100000F08EF8FFF708FF78B90820002100F0EB
:101820005DF80A20A22100F059F84FF4FA6000F0A8
:101830007FF8462000F020F810B1012010BD00BF55
:101840000220602100F04AF80820002100F046F84C
:101850000020FFF727FF08200321032400F03EF8B3
:1018600040F21000C2F2000080F83840022000F080
:101870005FF8002010BD000010B5044600F0DEFA4D
:10188000D42000F01FFA00F01DFB28B1012400F065
:10189000F9FA204610BD00BF204600F013FA00F010
:1018A00011FB28B1012400F0EDFA204610BD00BF65
:1018B00000F0C4FAD52000F005FA00F003FB28B1CF
:1018C000012400F0DFFA204610BD00BF002000F028
:1018D000DFF8044600F0D6FA204610BDB0B50C463D
:1018E000054600F0ABFAD42000F0ECF900F0EAFA7B
:1018F00028B9284600F0E6F900F0E4FA20B100F03B
:10190000C1FA0120B0BD00BF204600F0DBF900F0B5
:10191000D9FA0446002818BF012400F0B3FA204683
:10192000B0BD000040F26C01C2F2000108607047D7
:1019300080B54EF2180140F26C02CEF20001C2F204
:10194000000251F804CC1268002350434FF47A721D
:1019500000FB02FE086809E003449B1A824228BF8C
:1019600063447345104628BF80BD00BF0A688242A9
:10197000F2D10A688242EFD10A688242ECD10A6849
:101980008242F3D0E8E7000080B54EF2180140F241
:101990006C02CEF20001C2F2000251F804CC1268CF
:1019A000002302FB00FE08680AE000BF03449B1A04
:1019B000824228BF63447345104628BF80BD00BFE4
:1019C0000A688242F2D10A688242EFD10A688242F2
:1019D000ECD10A688242F3D0E8E7000080B582B01B
:1019E000019040F27000C2F2000001A901224FF6FE
:1019F000FF73FFF78DFC019802B080BDB0B584B0D5
:101A000041F21800C4F20200016840F6000441F0FF
:101A1000040101600168C4F2010401F004010091B5
:101A2000009901686D4641F0040101600068294693
:101A300000F0040000900098042000900120CDE9FF
:101A40000100032003902046FEF7CEFE0820009000
:101A50001120019020462946FEF7C6FE20460821A7
:101A60000022FEF7D7FF0220FFF78EFF2046042159
:101A70000122FEF7CFFF0220FFF786FF2046082154
:101A80000122FEF7C7FF0220FFF77EFF04B0B0BDC2
:101A90002DE9F04F83B040F60005C4F20105019036
:101AA000284604210122FEF7B5FF0220FFF76CFF54
:101AB00028460821FEF7A0FF0290284604210022B4
:101AC000FEF7A8FF0220FFF75FFF2846042101224E
:101AD000FEF7A0FF0220FFF757FF28460821FEF778
:101AE0008BFF8246284604210022FEF793FF022046
:101AF000FFF74AFF284604210122FEF78BFF022050
:101B0000FFF742FF28460821FEF776FF8346284666
:101B100004210022FEF77EFF0220FFF735FF284652
:101B200004210122FEF776FF0220FFF72DFF284651
:101B30000821FEF761FF0446284604210022FEF733
:101B400069FF0220FFF720FF284604210122FEF74B
:101B500061FF0220FFF718FF28460821FEF74CFF1F
:101B60000646284604210022FEF754FF0220FFF714
:101B70000BFF284604210122FEF74CFF0220FFF74D
:101B800003FF28460821FEF737FF074628460421B1
:101B90000022FEF73FFF0220FFF7F6FE2846042151
:101BA0000122FEF737FF0220FFF7EEFE284608214C
:101BB000FEF722FF8046284604210022FEF72AFF76
:101BC0000220FFF7E1FE284604210122FEF722FF52
:101BD0000220FFF7D9FE28460821FEF70DFF8146B7
:101BE000284604210022FEF715FF0220FFF7CCFE55
:101BF0000198D8B1284608210022FEF70BFF0220E9
:101C0000FFF7C2FE284604210122FEF703FF02204F
:101C1000FFF7BAFE284604210022FEF7FBFE022051
:101C2000FFF7B2FE28460821012212E028460821CB
:101C30000122FEF7EFFE0220FFF7A6FE2846042150
:101C40000122FEF7E7FE0220FFF79EFE2846042150
:101C50000022FEF7DFFE0220FFF796FE0298002822
:101C600018BF0120BAF1000F18BF4FF0010A4AEA6D
:101C700040008000BBF1000F18BF4FF0010B40EA9D
:101C80004B00002C18BF012420448000002E18BFF8
:101C9000012640EA4600002F18BF01273844800083
:101CA000B8F1000F18BF4FF0010840EA4800B9F141
:101CB000000F18BF4FF001094844C0B203B0BDE89F
:101CC000F08F0000B0B540F60004C4F201040546F0
:101CD000C20920460821FEF79DFE0220FFF754FEB0
:101CE000204604210122FEF795FE0220FFF74CFE5C
:101CF000204604210022FEF78DFEC5F38012204607
:101D00000821FEF787FE0220FFF73EFE2046042151
:101D10000122FEF77FFE0220FFF736FE2046042157
:101D20000022FEF777FEC5F3401220460821FEF799
:101D300071FE0220FFF728FE204604210122FEF753
:101D400069FE0220FFF720FE204604210022FEF754
:101D500061FEC5F3001220460821FEF75BFE02205B
:101D6000FFF712FE204604210122FEF753FE022057
:101D7000FFF70AFE204604210022FEF74BFEC5F3C2
:101D8000C00220460821FEF745FE0220FFF7FCFDB9
:101D9000204604210122FEF73DFE0220FFF7F4FD5C
:101DA000204604210022FEF735FEC5F380022046BE
:101DB0000821FEF72FFE0220FFF7E6FD2046042152
:101DC0000122FEF727FE0220FFF7DEFD2046042158
:101DD0000022FEF71FFEC5F3400220460821FEF751
:101DE00019FE0220FFF7D0FD204604210122FEF754
:101DF00011FE0220FFF7C8FD204604210022FEF755
:101E000009FE05F0010220460821FEF703FE02202C
:101E1000FFF7BAFD204604210122FEF7FBFD022058
:101E2000FFF7B2FD204604210022FEF7F3FD204615
:101E300008210122BDE8B040FEF7ECBD10B540F628
:101E40000004C4F20104204608210122FEF7E2FD4D
:101E5000204604210122FEF7DDFD0220FFF794FD5C
:101E6000204608210022FEF7D5FD0220FFF78CFD59
:101E7000204604210022FEF7CDFD0220BDE81040DF
:101E8000FFF782BD10B540F60004C4F201042046FD
:101E900008210022FEF7BEFD0220FFF775FD204657
:101EA00004210122FEF7B6FD0220FFF76DFD20465A
:101EB00008210122FEF7AEFD0220BDE81040FFF729
:101EC00063BD0000B0B540F60004C4F20104204632
:101ED00008210122FEF79EFD0220FFF755FD204656
:101EE00004210122FEF796FD0220FFF74DFD00259B
:101EF00020460821FEF780FDF0B1FA2D05F101051D
:101F0000F6D3204608210022FEF784FD0220FFF7C9
:101F10003BFD2046042101220125FEF77BFD022026
:101F2000FFF732FD204608210122FEF773FD022053
:101F3000FFF72AFD01E000BF002520460421002212
:101F4000FEF768FD0220FFF71FFD2846B0BD000028
:101F50009CB0FEF779FD00240120CDE91744CDE9BE
:101F60001544129016904FF4E0104FF48031022582
:101F70001B9012A8CDE91314CDE91951FEF700FF0B
:101F800020B1EFF3108072B6FEE700BF0F20CDE95D
:101F90000D054FF48060CDE910040DA802210F94C7
:101FA000FEF7E8FD20B1EFF3108072B6FEE700BF48
:101FB000FFF77AFAFFF7CCFA4820FFF7B3FC47A007
:101FC00000F02AFDFFF71CFC38B14BA4204600F0BE
:101FD00023FDFFF715FC0028F8D14DA000F01CFDF3
:101FE000FFF7FCFB352012A90C22FFF7DDFABDF943
:101FF0004800BDF94A40BDF94C50BDF94E70BDF9DD
:102000005060BDF95280FEF7BFF84FF06851FEF7FF
:1020100089F881462046FEF7B7F84FF06851FEF781
:1020200081F882462846FEF7AFF84FF06851FEF778
:1020300079F804463846FEF7A7F84FF07651FEF7D8
:1020400071F805463046FEF79FF84FF07651FEF7DF
:1020500069F806464046FEF797F84FF07651FEF7CE
:1020600061F80A904846FEF798F8CDE90B10504603
:10207000FEF793F8804620468A46FEF78EF807461C
:1020800028468946FEF789F8054630460C46FEF795
:1020900084F806460A988B46FEF77FF8CDE90801DA
:1020A00042F66620DDE90B32C0F60000CDE9008A79
:1020B000CDE90279CDE904540696CDF81CB000F0C4
:1020C00031F840F60000C4F201004FF48071FEF7D1
:1020D00099FC4FF4FA70FEF759FB81E75374617273
:1020E00074696E6720514D49383635384120746522
:1020F00073742E2E2E0D0000514D4938363538415F
:1021000020436865636B204661696C6564210D003E
:10211000514D493836353841205265616479210D79
:10212000000000000FB4054B10B503A9044A029843
:1021300000F0DAF810BC5DF814FB0000DD190008AF
:102140000000002002E008C8121F08C1002AFAD1CE
:1021500070477047002001E001C1121F002AFBD127
:10216000704700002DE9FF5F82B00021DDE90430F7
:10217000020DDDF840B0034318D044F61050A2F22F
:10218000FF3242431514119801281FD0A5EB0B0014
:10219000401C5FEA000A4FF000064E4FDFF838910E
:1021A000B046504615D5CAF1000413E01198012439
:1021B0004AA3012801D16FEA0B010298119AC0E9E4
:1021C0000031C0E9024206B0BDE8F09FCBF100004B
:1021D000DFE704460021404A491842EB0450CDE9AC
:1021E000001012E0E00707D032463B464046494621
:1021F000FEF70BF98046894632463B4610461946A3
:10220000FEF703F906460F466410002CEAD1DDE91B
:102210000401DDE90023BAF1000F06DAFEF7F5F854
:1022200042464B46FEF7F1F805E0FEF760F94246FC
:102230004B46FEF75CF904460E460022284BFEF79B
:10224000DDF903D84FF0FF30014607E00022254BAF
:1022500020463146FEF732F8FEF7B8F9102409E0BF
:10226000002C0ADB0A220023FDF7C0FF039B30325B
:102270001A55641E50EA0102F2D1641C039AC4F19B
:1022800011031444119A012A03D0012208430DD1ED
:102290000AE0084304D000204FF0110B119072E7C0
:1022A000A3EB0B056D1E0DE05B4504DD4FF0000256
:1022B00005F1010504E003DA4FF00002A5F1010584
:1022C000002AECD002981199C0E90231C0E900451A
:1022D00079E70000000014400000F03F30000000EB
:1022E0000000F0430000E03F2DE9FF4F95B09B4612
:1022F0008946064600250FE2252877D10024274687
:10230000F84A0121059400E0044316F8013F203B00
:1023100001FA03F01042F7D130782A2811D06FF07B
:102320002F033078A0F13002092A16D8059A44F01C
:10233000020402EB820203EB42021044761C059079
:10234000EFE759F8042B0592002A03DA504244F4CF
:102350000054059044F00204761C30782E2816D1E3
:1023600016F8010F44F004042A280DD06FF02F0254
:102370003078A0F13003092B09D807EB870302EB73
:102380004303C718761CF3E759F8047B761C3078B2
:102390006C280FD006DC4C2817D068280DD06A288E
:1023A00014D104E0742810D07A280FD10DE044F441
:1023B00000140AE044F4801401E044F440147278FC
:1023C000824202D104F58014761C761C307866288F
:1023D0000BD013DC582877D009DC002875D04528AD
:1023E000F6D04628F4D047281AD19DE118E063289A
:1023F00035D0642879D0652812D195E1702873D042
:1024000008DC6728F1D069286FD06E280DD06F28BE
:1024100006D1B5E073282CD0752875D0782874D0F3
:102420005A46179990476D1C75E1C4F30250022873
:1024300009D003280DD0D9F8001004280DD00D6064
:1024400009F1040967E1D9F80010EA17C1E900525F
:10245000F6E7D9F800100D80F2E70D70F0E719F8F3
:10246000041B8DF8001000208DF80100EA460120C1
:1024700003E059F804AB4FF0FF3061074FF0000163
:1024800002D40DE008F101018846B9420FDA804517
:10249000F8DB1AF808100029F4D108E008F101016E
:1024A00088468142FADB1AF808100029F6D105980F
:1024B0005B46A0EB080721463846179A00F094FACD
:1024C000284400EB080507E04DE029E10DE01AF88B
:1024D000010B5A4617999047B8F10108F7D25B46AD
:1024E00021463846179A13E142E00A220092C4F3CB
:1024F00002524FF0000A022A08D059F804CB032AEE
:102500004FEAEC710AD00DE029E02AE009F1070159
:1025100021F00702F2E802C1914609E00FFA8CFCB3
:102520004FEAEC71042A03D14FFA8CFC4FEAEC71AC
:10253000002907DA0A460021DCF1000C61EB0201F8
:102540002D2202E0220504D52B228DF80420012241
:1025500003E0E20701D02022F7E7904659E00A2184
:1025600002E010220DE010214FF0000A00910BE074
:1025700010224FF0000A44F004040827009203E000
:1025800008224FF0000A0092C4F30252022A05D03A
:1025900059F804CB0021032A08D009E009F107010A
:1025A00021F00702F2E802C1914605E01FFA8CFC17
:1025B000042A01D10CF0FF0C4FF00008220728D5A7
:1025C000702806D0009B83F0100353EA0A0305D05D
:1025D0000EE040228DF80420012208E05CEA0102AE
:1025E00006D030228DF804208DF805000222904696
:1025F000009B83F0080353EA0A030AD15CEA010254
:1026000001D1620705D530228DF804204FF0010872
:102610007F1E582804D034A003900EA802900DE02D
:1026200036A0F9E753466046009AFDF7DFFD844681
:102630000398825C0298401E029002705CEA0100DE
:10264000F0D1029806A9081A00F1200A600702D505
:1026500024F4803400E00127574502DDA7EB0A008F
:1026600000E0002000EB0A01009005984144401A68
:102670000590E00306D45B462146179A059800F0C2
:10268000B3F90544002706E001A85A46C05D179932
:1026900090476D1C7F1C4745F6DBE0030CD55B467D
:1026A0002146179A059800F09FF9054404E0302070
:1026B0005A46179990476D1C0099481E00900029B2
:1026C000F5DC08E0029802995A460078491C02910C
:1026D000179990476D1CBAF10001AAF1010AF1DCCB
:1026E00065E10000092801003031323334353637D6
:1026F000383961626364656600000000303132334E
:1027000034353637383941424344454600000000ED
:1027100000F058F90544761C307800287FF4ECADC1
:1027200019B02846BDE8F08F620700D4062709F1EA
:10273000070222F0070CFCE80223E14603F0004800
:102740005FEA080C02D00FF2702C0DE05FEA045C27
:1027500002D50FF2682C07E05FEAC47C02D00FF2CA
:10276000602C01E0AFF2700C4FF0FF3823F0004313
:10277000CDF850C065280CD006DC452809D0462885
:102780001DD047283DD13DE0662818D067287ED16E
:1027900038E00021112F01DB112000E0781CCDE989
:1027A000000106A90EA8FFF7DDFCDDE90F010E9A76
:1027B00003910021009207F1010A04914DE04FF0CE
:1027C00000400097CDE9011006A90EA8FFF7CAFC4A
:1027D000DDE90F0203920E9B11990022DDF80CA097
:1027E0000093049211B9791C00EB010AB7EB0A00BF
:1027F00004D4C0F1FF3007F1010A0490AAEB0700EE
:10280000019044E0012F00DA01270021112F01DDA2
:10281000112000E03846CDE9000106A90EA8FFF717
:10282000A1FCDDE90F010E9A0391002104910092B1
:10283000BA4621070CD40399514500DA8A46BAF109
:10284000010F05DD009AAAF10101515C302908D081
:10285000B84202DA10F1040F06DA0121CDE90110C5
:1028600015E0AAF10101E9E7002805DC049901441B
:102870000491AAEB000102E0411C514500DD8A46AB
:102880000499401A401C01904FF00040029020072C
:1028900004D40198504501DBCDF8048000208DF868
:1028A0004F0002980DF14F07B0F1004F25D02B20BB
:1028B0000E9002984FF0020800280CDA4042029075
:1028C0002D200E9007E00A210298FDF779FC3031A7
:1028D000029007F8011DB8F10001A8F10108F2DC2F
:1028E00002980028EFD1791E0E980870307800F019
:1028F000200040F0450007F8020D12A8C01B00F1AF
:1029000007081498007800B1012000EB0A01019833
:1029100001EBE07105984144401A401E0590E00328
:1029200006D45B462146179A059800F05DF80544E9
:102930001498007818B15A46179990476D1CE00317
:1029400024D55B462146179A059800F04DF80544BA
:102950001CE00498002807DBDDE90301884203DD61
:102960000098405C179901E0179930205A4690472B
:10297000049805F10105401C04900198401E019047
:1029800004D12E205A46179990476D1CBAF10001C8
:10299000AAF1010ADDDC05E017F8010B5A46179988
:1029A00090476D1CB8F10001A8F10108F4DC5B460A
:1029B0002146179A0598ABE62D0000002B00000079
:1029C000200000002DE9F041044600251E46174670
:1029D000880404D405E039462020B0476D1C641EED
:1029E000F9D52846BDE8F0812DE9F04104460025DF
:1029F0001E469046C80301D5302700E020278804F2
:102A000004D505E041463846B0476D1C641EF9D533
:102A10002846BDE8F081000010B5044601E0FEF74D
:102A2000DDFF14F8010B04490028F8D1BDE810407F
:102A30000A20FEF7D3BF00000000002000000000C5
:102A4000000000000102030406070809000000005E
:102A500001020304010202030405060708090A0B28
:102A60000C0D0E0F10104163632867293A20583D62
:102A7000252E32662C20593D252E32662C205A3DBB
:102A8000252E3266207C2047797228647073293A9B
:102A900020583D252E31662C20593D252E31662C9F
:102AA000205A3D252E31660D0A000000D02A00086C
:102AB000000000201000000044210008E02A000867
:102AC00010000020B00400005421000800000000A5
:102AD00000000000010000001000000000127A0059
:04000005080000ED02
:00000001FF
